{
  "contractName": "Bank",
  "abi": [
    {
      "inputs": [
        {
          "internalType": "contract Token",
          "name": "_token",
          "type": "address"
        }
      ],
      "stateMutability": "nonpayable",
      "type": "constructor"
    },
    {
      "inputs": [],
      "name": "admin",
      "outputs": [
        {
          "internalType": "address",
          "name": "",
          "type": "address"
        }
      ],
      "stateMutability": "view",
      "type": "function",
      "constant": true
    },
    {
      "inputs": [
        {
          "internalType": "address",
          "name": "",
          "type": "address"
        }
      ],
      "name": "depositStart",
      "outputs": [
        {
          "internalType": "uint256",
          "name": "",
          "type": "uint256"
        }
      ],
      "stateMutability": "view",
      "type": "function",
      "constant": true
    },
    {
      "inputs": [
        {
          "internalType": "address",
          "name": "",
          "type": "address"
        }
      ],
      "name": "etherAmount",
      "outputs": [
        {
          "internalType": "uint256",
          "name": "",
          "type": "uint256"
        }
      ],
      "stateMutability": "view",
      "type": "function",
      "constant": true
    },
    {
      "inputs": [],
      "name": "deposit",
      "outputs": [],
      "stateMutability": "payable",
      "type": "function",
      "payable": true
    },
    {
      "inputs": [],
      "name": "withdraw",
      "outputs": [],
      "stateMutability": "nonpayable",
      "type": "function"
    }
  ],
  "bytecode": "0x608060405234801561001057600080fd5b50604051610a3b380380610a3b8339818101604052810190610032919061008e565b80600160006101000a81548173ffffffffffffffffffffffffffffffffffffffff021916908373ffffffffffffffffffffffffffffffffffffffff16021790555050610112565b600081519050610088816100fb565b92915050565b6000602082840312156100a057600080fd5b60006100ae84828501610079565b91505092915050565b60006100c2826100db565b9050919050565b60006100d4826100b7565b9050919050565b600073ffffffffffffffffffffffffffffffffffffffff82169050919050565b610104816100c9565b811461010f57600080fd5b50565b61091a806101216000396000f3fe60806040526004361061004a5760003560e01c80633ccfd60b1461004f578063c93cf01614610066578063d0e30db0146100a3578063f851a440146100ad578063ff87930a146100d8575b600080fd5b34801561005b57600080fd5b50610064610115565b005b34801561007257600080fd5b5061008d600480360381019061008891906105db565b610388565b60405161009a91906107ac565b60405180910390f35b6100ab6103a0565b005b3480156100b957600080fd5b506100c261058a565b6040516100cf9190610708565b60405180910390f35b3480156100e457600080fd5b506100ff60048036038101906100fa91906105db565b6105ae565b60405161010c91906107ac565b60405180910390f35b6000600260003373ffffffffffffffffffffffffffffffffffffffff1673ffffffffffffffffffffffffffffffffffffffff1681526020019081526020016000205411610197576040517f08c379a000000000000000000000000000000000000000000000000000000000815260040161018e9061076c565b60405180910390fd5b3373ffffffffffffffffffffffffffffffffffffffff166108fc600260003373ffffffffffffffffffffffffffffffffffffffff1673ffffffffffffffffffffffffffffffffffffffff168152602001908152602001600020549081150290604051600060405180830381858888f1935050505015801561021c573d6000803e3d6000fd5b506000600360003373ffffffffffffffffffffffffffffffffffffffff1673ffffffffffffffffffffffffffffffffffffffff168152602001908152602001600020544261026a919061082e565b9050600160009054906101000a900473ffffffffffffffffffffffffffffffffffffffff1673ffffffffffffffffffffffffffffffffffffffff166340c10f1933836040518363ffffffff1660e01b81526004016102c9929190610723565b600060405180830381600087803b1580156102e357600080fd5b505af11580156102f7573d6000803e3d6000fd5b505050506000600260003373ffffffffffffffffffffffffffffffffffffffff1673ffffffffffffffffffffffffffffffffffffffff168152602001908152602001600020819055506000600360003373ffffffffffffffffffffffffffffffffffffffff1673ffffffffffffffffffffffffffffffffffffffff1681526020019081526020016000208190555050565b60026020528060005260406000206000915090505481565b6000600260003373ffffffffffffffffffffffffffffffffffffffff1673ffffffffffffffffffffffffffffffffffffffff1681526020019081526020016000205414610422576040517f08c379a00000000000000000000000000000000000000000000000000000000081526004016104199061078c565b60405180910390fd5b662386f26fc1000034101561046c576040517f08c379a00000000000000000000000000000000000000000000000000000000081526004016104639061074c565b60405180910390fd5b34600260003373ffffffffffffffffffffffffffffffffffffffff1673ffffffffffffffffffffffffffffffffffffffff168152602001908152602001600020546104b791906107d8565b600260003373ffffffffffffffffffffffffffffffffffffffff1673ffffffffffffffffffffffffffffffffffffffff1681526020019081526020016000208190555042600360003373ffffffffffffffffffffffffffffffffffffffff1673ffffffffffffffffffffffffffffffffffffffff1681526020019081526020016000205461054591906107d8565b600360003373ffffffffffffffffffffffffffffffffffffffff1673ffffffffffffffffffffffffffffffffffffffff16815260200190815260200160002081905550565b60008054906101000a900473ffffffffffffffffffffffffffffffffffffffff1681565b60036020528060005260406000206000915090505481565b6000813590506105d5816108cd565b92915050565b6000602082840312156105ed57600080fd5b60006105fb848285016105c6565b91505092915050565b61060d81610862565b82525050565b60006106206022836107c7565b91507f4572726f722c206465706f736974206d757374206265203e3d20302e3031204560008301527f54480000000000000000000000000000000000000000000000000000000000006020830152604082019050919050565b6000610686601c836107c7565b91507f6d757374206861766520616d6f756e7420746f207265747269657665000000006000830152602082019050919050565b60006106c66019836107c7565b91507f776974686472617720796f75722066756e6473206669727374000000000000006000830152602082019050919050565b61070281610894565b82525050565b600060208201905061071d6000830184610604565b92915050565b60006040820190506107386000830185610604565b61074560208301846106f9565b9392505050565b6000602082019050818103600083015261076581610613565b9050919050565b6000602082019050818103600083015261078581610679565b9050919050565b600060208201905081810360008301526107a5816106b9565b9050919050565b60006020820190506107c160008301846106f9565b92915050565b600082825260208201905092915050565b60006107e382610894565b91506107ee83610894565b9250827fffffffffffffffffffffffffffffffffffffffffffffffffffffffffffffffff038211156108235761082261089e565b5b828201905092915050565b600061083982610894565b915061084483610894565b9250828210156108575761085661089e565b5b828203905092915050565b600061086d82610874565b9050919050565b600073ffffffffffffffffffffffffffffffffffffffff82169050919050565b6000819050919050565b7f4e487b7100000000000000000000000000000000000000000000000000000000600052601160045260246000fd5b6108d681610862565b81146108e157600080fd5b5056fea26469706673582212201fdadefce65c781dd62311b8ad3016c9748ab9f9c639b287cb19b8c3aece534764736f6c63430008000033",
  "immutableReferences": {},
  "source": "// SPDX-License-Identifier: MIT\npragma solidity >=0.4.22 <0.9.0;\n\nimport \"@openzeppelin/contracts/token/ERC20/ERC20.sol\";\nimport \"./Token.sol\";\n\ncontract Bank {\n    address public admin;\n    Token private token;\n    mapping(address => uint256) public etherAmount;\n    mapping(address => uint256) public depositStart;\n\n    constructor(Token _token) {\n        token = _token;\n    }\n\n    function deposit() external payable {\n        require(etherAmount[msg.sender] == 0, \"withdraw your funds first\");\n        require(msg.value >= 1e16, \"Error, deposit must be >= 0.01 ETH\");\n\n        etherAmount[msg.sender] = etherAmount[msg.sender] + msg.value;\n        depositStart[msg.sender] = depositStart[msg.sender] + block.timestamp;\n    }\n\n    function withdraw() external {\n        require(etherAmount[msg.sender] > 0, \"must have amount to retrieve\");\n\n        payable(msg.sender).transfer(etherAmount[msg.sender]);\n        uint256 interest = block.timestamp - depositStart[msg.sender];\n        token.mint(msg.sender, interest);\n\n        etherAmount[msg.sender] = 0;\n        depositStart[msg.sender] = 0;\n    }\n}\n",
  "sourcePath": "/Volumes/APPLE HDD/reactprojects/basic_connection/contracts/Bank.sol",
  "compiler": {
    "name": "solc",
    "version": "0.8.0+commit.c7dfd78e.Emscripten.clang"
  },
  "schemaVersion": "3.4.3",
  "updatedAt": "2021-09-30T08:24:21.120Z",
  "networkType": "ethereum",
  "devdoc": {
    "kind": "dev",
    "methods": {},
    "version": 1
  },
  "userdoc": {
    "kind": "user",
    "methods": {},
    "version": 1
  }
}